{
  "address": "0x5FbDB2315678afecb367f032d93F642f64180aa3",
  "abi": [
    {
      "inputs": [],
      "stateMutability": "nonpayable",
      "type": "constructor"
    },
    {
      "anonymous": false,
      "inputs": [
        {
          "indexed": true,
          "internalType": "address",
          "name": "owner",
          "type": "address"
        },
        {
          "indexed": true,
          "internalType": "address",
          "name": "approved",
          "type": "address"
        },
        {
          "indexed": true,
          "internalType": "uint256",
          "name": "tokenId",
          "type": "uint256"
        }
      ],
      "name": "Approval",
      "type": "event"
    },
    {
      "anonymous": false,
      "inputs": [
        {
          "indexed": true,
          "internalType": "address",
          "name": "owner",
          "type": "address"
        },
        {
          "indexed": true,
          "internalType": "address",
          "name": "operator",
          "type": "address"
        },
        {
          "indexed": false,
          "internalType": "bool",
          "name": "approved",
          "type": "bool"
        }
      ],
      "name": "ApprovalForAll",
      "type": "event"
    },
    {
      "anonymous": false,
      "inputs": [
        {
          "indexed": true,
          "internalType": "address",
          "name": "previousOwner",
          "type": "address"
        },
        {
          "indexed": true,
          "internalType": "address",
          "name": "newOwner",
          "type": "address"
        }
      ],
      "name": "OwnershipTransferred",
      "type": "event"
    },
    {
      "anonymous": false,
      "inputs": [
        {
          "indexed": true,
          "internalType": "address",
          "name": "from",
          "type": "address"
        },
        {
          "indexed": true,
          "internalType": "address",
          "name": "to",
          "type": "address"
        },
        {
          "indexed": true,
          "internalType": "uint256",
          "name": "tokenId",
          "type": "uint256"
        }
      ],
      "name": "Transfer",
      "type": "event"
    },
    {
      "inputs": [
        {
          "internalType": "address",
          "name": "to",
          "type": "address"
        },
        {
          "internalType": "uint256",
          "name": "tokenId",
          "type": "uint256"
        }
      ],
      "name": "approve",
      "outputs": [],
      "stateMutability": "nonpayable",
      "type": "function"
    },
    {
      "inputs": [
        {
          "internalType": "address",
          "name": "owner",
          "type": "address"
        }
      ],
      "name": "balanceOf",
      "outputs": [
        {
          "internalType": "uint256",
          "name": "",
          "type": "uint256"
        }
      ],
      "stateMutability": "view",
      "type": "function"
    },
    {
      "inputs": [
        {
          "internalType": "string",
          "name": "_name",
          "type": "string"
        },
        {
          "internalType": "uint256",
          "name": "_price",
          "type": "uint256"
        }
      ],
      "name": "createChannel",
      "outputs": [],
      "stateMutability": "nonpayable",
      "type": "function"
    },
    {
      "inputs": [
        {
          "internalType": "uint256",
          "name": "tokenId",
          "type": "uint256"
        }
      ],
      "name": "getApproved",
      "outputs": [
        {
          "internalType": "address",
          "name": "",
          "type": "address"
        }
      ],
      "stateMutability": "view",
      "type": "function"
    },
    {
      "inputs": [
        {
          "internalType": "uint256",
          "name": "_id",
          "type": "uint256"
        }
      ],
      "name": "getChannel",
      "outputs": [
        {
          "components": [
            {
              "internalType": "uint256",
              "name": "id",
              "type": "uint256"
            },
            {
              "internalType": "string",
              "name": "name",
              "type": "string"
            },
            {
              "internalType": "address",
              "name": "owner",
              "type": "address"
            },
            {
              "internalType": "uint256",
              "name": "price",
              "type": "uint256"
            },
            {
              "internalType": "uint256",
              "name": "balance",
              "type": "uint256"
            }
          ],
          "internalType": "struct Dappcord.Channel",
          "name": "",
          "type": "tuple"
        }
      ],
      "stateMutability": "view",
      "type": "function"
    },
    {
      "inputs": [],
      "name": "getChannelsNumber",
      "outputs": [
        {
          "internalType": "uint256",
          "name": "",
          "type": "uint256"
        }
      ],
      "stateMutability": "view",
      "type": "function"
    },
    {
      "inputs": [
        {
          "internalType": "uint256",
          "name": "_id",
          "type": "uint256"
        },
        {
          "internalType": "uint256",
          "name": "_tokenId",
          "type": "uint256"
        }
      ],
      "name": "getIfParticipant",
      "outputs": [
        {
          "internalType": "bool",
          "name": "",
          "type": "bool"
        }
      ],
      "stateMutability": "view",
      "type": "function"
    },
    {
      "inputs": [
        {
          "internalType": "address",
          "name": "owner",
          "type": "address"
        },
        {
          "internalType": "address",
          "name": "operator",
          "type": "address"
        }
      ],
      "name": "isApprovedForAll",
      "outputs": [
        {
          "internalType": "bool",
          "name": "",
          "type": "bool"
        }
      ],
      "stateMutability": "view",
      "type": "function"
    },
    {
      "inputs": [
        {
          "internalType": "uint256",
          "name": "_id",
          "type": "uint256"
        }
      ],
      "name": "mint",
      "outputs": [],
      "stateMutability": "payable",
      "type": "function"
    },
    {
      "inputs": [],
      "name": "name",
      "outputs": [
        {
          "internalType": "string",
          "name": "",
          "type": "string"
        }
      ],
      "stateMutability": "view",
      "type": "function"
    },
    {
      "inputs": [],
      "name": "owner",
      "outputs": [
        {
          "internalType": "address",
          "name": "",
          "type": "address"
        }
      ],
      "stateMutability": "view",
      "type": "function"
    },
    {
      "inputs": [
        {
          "internalType": "uint256",
          "name": "tokenId",
          "type": "uint256"
        }
      ],
      "name": "ownerOf",
      "outputs": [
        {
          "internalType": "address",
          "name": "",
          "type": "address"
        }
      ],
      "stateMutability": "view",
      "type": "function"
    },
    {
      "inputs": [
        {
          "internalType": "uint256",
          "name": "",
          "type": "uint256"
        },
        {
          "internalType": "uint256",
          "name": "",
          "type": "uint256"
        }
      ],
      "name": "participants",
      "outputs": [
        {
          "internalType": "bool",
          "name": "",
          "type": "bool"
        }
      ],
      "stateMutability": "view",
      "type": "function"
    },
    {
      "inputs": [],
      "name": "renounceOwnership",
      "outputs": [],
      "stateMutability": "nonpayable",
      "type": "function"
    },
    {
      "inputs": [
        {
          "internalType": "address",
          "name": "from",
          "type": "address"
        },
        {
          "internalType": "address",
          "name": "to",
          "type": "address"
        },
        {
          "internalType": "uint256",
          "name": "tokenId",
          "type": "uint256"
        }
      ],
      "name": "safeTransferFrom",
      "outputs": [],
      "stateMutability": "nonpayable",
      "type": "function"
    },
    {
      "inputs": [
        {
          "internalType": "address",
          "name": "from",
          "type": "address"
        },
        {
          "internalType": "address",
          "name": "to",
          "type": "address"
        },
        {
          "internalType": "uint256",
          "name": "tokenId",
          "type": "uint256"
        },
        {
          "internalType": "bytes",
          "name": "data",
          "type": "bytes"
        }
      ],
      "name": "safeTransferFrom",
      "outputs": [],
      "stateMutability": "nonpayable",
      "type": "function"
    },
    {
      "inputs": [
        {
          "internalType": "address",
          "name": "operator",
          "type": "address"
        },
        {
          "internalType": "bool",
          "name": "approved",
          "type": "bool"
        }
      ],
      "name": "setApprovalForAll",
      "outputs": [],
      "stateMutability": "nonpayable",
      "type": "function"
    },
    {
      "inputs": [
        {
          "internalType": "bytes4",
          "name": "interfaceId",
          "type": "bytes4"
        }
      ],
      "name": "supportsInterface",
      "outputs": [
        {
          "internalType": "bool",
          "name": "",
          "type": "bool"
        }
      ],
      "stateMutability": "view",
      "type": "function"
    },
    {
      "inputs": [],
      "name": "symbol",
      "outputs": [
        {
          "internalType": "string",
          "name": "",
          "type": "string"
        }
      ],
      "stateMutability": "view",
      "type": "function"
    },
    {
      "inputs": [
        {
          "internalType": "uint256",
          "name": "index",
          "type": "uint256"
        }
      ],
      "name": "tokenByIndex",
      "outputs": [
        {
          "internalType": "uint256",
          "name": "",
          "type": "uint256"
        }
      ],
      "stateMutability": "view",
      "type": "function"
    },
    {
      "inputs": [],
      "name": "tokenCounter",
      "outputs": [
        {
          "internalType": "uint256",
          "name": "",
          "type": "uint256"
        }
      ],
      "stateMutability": "view",
      "type": "function"
    },
    {
      "inputs": [
        {
          "internalType": "address",
          "name": "owner",
          "type": "address"
        },
        {
          "internalType": "uint256",
          "name": "index",
          "type": "uint256"
        }
      ],
      "name": "tokenOfOwnerByIndex",
      "outputs": [
        {
          "internalType": "uint256",
          "name": "",
          "type": "uint256"
        }
      ],
      "stateMutability": "view",
      "type": "function"
    },
    {
      "inputs": [
        {
          "internalType": "uint256",
          "name": "tokenId",
          "type": "uint256"
        }
      ],
      "name": "tokenURI",
      "outputs": [
        {
          "internalType": "string",
          "name": "",
          "type": "string"
        }
      ],
      "stateMutability": "view",
      "type": "function"
    },
    {
      "inputs": [],
      "name": "totalSupply",
      "outputs": [
        {
          "internalType": "uint256",
          "name": "",
          "type": "uint256"
        }
      ],
      "stateMutability": "view",
      "type": "function"
    },
    {
      "inputs": [
        {
          "internalType": "address",
          "name": "from",
          "type": "address"
        },
        {
          "internalType": "address",
          "name": "to",
          "type": "address"
        },
        {
          "internalType": "uint256",
          "name": "tokenId",
          "type": "uint256"
        }
      ],
      "name": "transferFrom",
      "outputs": [],
      "stateMutability": "nonpayable",
      "type": "function"
    },
    {
      "inputs": [
        {
          "internalType": "address",
          "name": "newOwner",
          "type": "address"
        }
      ],
      "name": "transferOwnership",
      "outputs": [],
      "stateMutability": "nonpayable",
      "type": "function"
    },
    {
      "inputs": [
        {
          "internalType": "uint256",
          "name": "_id",
          "type": "uint256"
        }
      ],
      "name": "withdraw",
      "outputs": [],
      "stateMutability": "nonpayable",
      "type": "function"
    }
  ],
  "transactionHash": "0x05e727778110e33af84f9aef8cbf854d5096a6b44a01ae14b63b0e1c3c21d1fd",
  "args": [],
  "numDeployments": 1,
  "solcInputHash": "e27354dcd4d5b49cc6eb511b6c4ab020",
  "bytecode": "0x60806040523480156200001157600080fd5b506040518060400160405280600881526020017f44617070636f72640000000000000000000000000000000000000000000000008152506040518060400160405280600381526020017f445043000000000000000000000000000000000000000000000000000000000081525081600090816200008f919062000412565b508060019081620000a1919062000412565b505050620000c4620000b8620000ca60201b60201c565b620000d260201b60201c565b620004f9565b600033905090565b6000600a60009054906101000a900473ffffffffffffffffffffffffffffffffffffffff16905081600a60006101000a81548173ffffffffffffffffffffffffffffffffffffffff021916908373ffffffffffffffffffffffffffffffffffffffff1602179055508173ffffffffffffffffffffffffffffffffffffffff168173ffffffffffffffffffffffffffffffffffffffff167f8be0079c531659141344cd1fd0a4f28419497f9722a3daafe3b4186f6b6457e060405160405180910390a35050565b600081519050919050565b7f4e487b7100000000000000000000000000000000000000000000000000000000600052604160045260246000fd5b7f4e487b7100000000000000000000000000000000000000000000000000000000600052602260045260246000fd5b600060028204905060018216806200021a57607f821691505b60208210810362000230576200022f620001d2565b5b50919050565b60008190508160005260206000209050919050565b60006020601f8301049050919050565b600082821b905092915050565b6000600883026200029a7fffffffffffffffffffffffffffffffffffffffffffffffffffffffffffffffff826200025b565b620002a686836200025b565b95508019841693508086168417925050509392505050565b6000819050919050565b6000819050919050565b6000620002f3620002ed620002e784620002be565b620002c8565b620002be565b9050919050565b6000819050919050565b6200030f83620002d2565b620003276200031e82620002fa565b84845462000268565b825550505050565b600090565b6200033e6200032f565b6200034b81848462000304565b505050565b5b8181101562000373576200036760008262000334565b60018101905062000351565b5050565b601f821115620003c2576200038c8162000236565b62000397846200024b565b81016020851015620003a7578190505b620003bf620003b6856200024b565b83018262000350565b50505b505050565b600082821c905092915050565b6000620003e760001984600802620003c7565b1980831691505092915050565b6000620004028383620003d4565b9150826002028217905092915050565b6200041d8262000198565b67ffffffffffffffff811115620004395762000438620001a3565b5b62000445825462000201565b6200045282828562000377565b600060209050601f8311600181146200048a576000841562000475578287015190505b620004818582620003f4565b865550620004f1565b601f1984166200049a8662000236565b60005b82811015620004c4578489015182556001820191506020850194506020810190506200049d565b86831015620004e45784890151620004e0601f891682620003d4565b8355505b6001600288020188555050505b505050505050565b6141b580620005096000396000f3fe60806040526004361061019c5760003560e01c80636352211e116100ec578063a14865cd1161008a578063c87b56dd11610064578063c87b56dd146105ef578063d082e3811461062c578063e985e9c514610657578063f2fde38b146106945761019c565b8063a14865cd14610574578063a22cb4651461059d578063b88d4fde146105c65761019c565b806381fb1fb4116100c657806381fb1fb4146104c55780638da5cb5b1461050257806395d89b411461052d578063a0712d68146105585761019c565b80636352211e1461043457806370a0823114610471578063715018a6146104ae5761019c565b806313c288af116101595780632e1a7d4d116101335780632e1a7d4d146103685780632f745c591461039157806342842e0e146103ce5780634f6ccce7146103f75761019c565b806313c288af146102d757806318160ddd1461031457806323b872dd1461033f5761019c565b806301ffc9a7146101a157806306fdde03146101de578063081812fc14610209578063095ea7b31461024657806310df54a01461026f578063136ea246146102ac575b600080fd5b3480156101ad57600080fd5b506101c860048036038101906101c391906129c3565b6106bd565b6040516101d59190612a0b565b60405180910390f35b3480156101ea57600080fd5b506101f3610737565b6040516102009190612ab6565b60405180910390f35b34801561021557600080fd5b50610230600480360381019061022b9190612b0e565b6107c9565b60405161023d9190612b7c565b60405180910390f35b34801561025257600080fd5b5061026d60048036038101906102689190612bc3565b61080f565b005b34801561027b57600080fd5b5061029660048036038101906102919190612b0e565b610926565b6040516102a39190612ce1565b60405180910390f35b3480156102b857600080fd5b506102c1610a68565b6040516102ce9190612d12565b60405180910390f35b3480156102e357600080fd5b506102fe60048036038101906102f99190612d2d565b610a75565b60405161030b9190612a0b565b60405180910390f35b34801561032057600080fd5b50610329610ab1565b6040516103369190612d12565b60405180910390f35b34801561034b57600080fd5b5061036660048036038101906103619190612d6d565b610abe565b005b34801561037457600080fd5b5061038f600480360381019061038a9190612b0e565b610b1e565b005b34801561039d57600080fd5b506103b860048036038101906103b39190612bc3565b610cfc565b6040516103c59190612d12565b60405180910390f35b3480156103da57600080fd5b506103f560048036038101906103f09190612d6d565b610da1565b005b34801561040357600080fd5b5061041e60048036038101906104199190612b0e565b610dc1565b60405161042b9190612d12565b60405180910390f35b34801561044057600080fd5b5061045b60048036038101906104569190612b0e565b610e32565b6040516104689190612b7c565b60405180910390f35b34801561047d57600080fd5b5061049860048036038101906104939190612dc0565b610eb8565b6040516104a59190612d12565b60405180910390f35b3480156104ba57600080fd5b506104c3610f6f565b005b3480156104d157600080fd5b506104ec60048036038101906104e79190612d2d565b610f83565b6040516104f99190612a0b565b60405180910390f35b34801561050e57600080fd5b50610517610fb2565b6040516105249190612b7c565b60405180910390f35b34801561053957600080fd5b50610542610fdc565b60405161054f9190612ab6565b60405180910390f35b610572600480360381019061056d9190612b0e565b61106e565b005b34801561058057600080fd5b5061059b60048036038101906105969190612f22565b6111ce565b005b3480156105a957600080fd5b506105c460048036038101906105bf9190612faa565b6112bd565b005b3480156105d257600080fd5b506105ed60048036038101906105e8919061308b565b6112d3565b005b3480156105fb57600080fd5b5061061660048036038101906106119190612b0e565b611335565b6040516106239190612ab6565b60405180910390f35b34801561063857600080fd5b5061064161139d565b60405161064e9190612d12565b60405180910390f35b34801561066357600080fd5b5061067e6004803603810190610679919061310e565b6113a3565b60405161068b9190612a0b565b60405180910390f35b3480156106a057600080fd5b506106bb60048036038101906106b69190612dc0565b611437565b005b60007f780e9d63000000000000000000000000000000000000000000000000000000007bffffffffffffffffffffffffffffffffffffffffffffffffffffffff1916827bffffffffffffffffffffffffffffffffffffffffffffffffffffffff19161480610730575061072f826114ba565b5b9050919050565b6060600080546107469061317d565b80601f01602080910402602001604051908101604052809291908181526020018280546107729061317d565b80156107bf5780601f10610794576101008083540402835291602001916107bf565b820191906000526020600020905b8154815290600101906020018083116107a257829003601f168201915b5050505050905090565b60006107d48261159c565b6004600083815260200190815260200160002060009054906101000a900473ffffffffffffffffffffffffffffffffffffffff169050919050565b600061081a82610e32565b90508073ffffffffffffffffffffffffffffffffffffffff168373ffffffffffffffffffffffffffffffffffffffff160361088a576040517f08c379a000000000000000000000000000000000000000000000000000000000815260040161088190613220565b60405180910390fd5b8073ffffffffffffffffffffffffffffffffffffffff166108a96115e7565b73ffffffffffffffffffffffffffffffffffffffff1614806108d857506108d7816108d26115e7565b6113a3565b5b610917576040517f08c379a000000000000000000000000000000000000000000000000000000000815260040161090e906132b2565b60405180910390fd5b61092183836115ef565b505050565b61092e612912565b600d8281548110610942576109416132d2565b5b90600052602060002090600502016040518060a0016040529081600082015481526020016001820180546109759061317d565b80601f01602080910402602001604051908101604052809291908181526020018280546109a19061317d565b80156109ee5780601f106109c3576101008083540402835291602001916109ee565b820191906000526020600020905b8154815290600101906020018083116109d157829003601f168201915b505050505081526020016002820160009054906101000a900473ffffffffffffffffffffffffffffffffffffffff1673ffffffffffffffffffffffffffffffffffffffff1673ffffffffffffffffffffffffffffffffffffffff168152602001600382015481526020016004820154815250509050919050565b6000600d80549050905090565b6000600c6000848152602001908152602001600020600083815260200190815260200160002060009054906101000a900460ff16905092915050565b6000600880549050905090565b610acf610ac96115e7565b826116a8565b610b0e576040517f08c379a0000000000000000000000000000000000000000000000000000000008152600401610b0590613373565b60405180910390fd5b610b1983838361173d565b505050565b8080600d80549050118015610b34575060008110155b610b73576040517f08c379a0000000000000000000000000000000000000000000000000000000008152600401610b6a906133df565b60405180910390fd5b3373ffffffffffffffffffffffffffffffffffffffff16600d8381548110610b9e57610b9d6132d2565b5b906000526020600020906005020160020160009054906101000a900473ffffffffffffffffffffffffffffffffffffffff1673ffffffffffffffffffffffffffffffffffffffff1614610c26576040517f08c379a0000000000000000000000000000000000000000000000000000000008152600401610c1d90613471565b60405180910390fd5b60003373ffffffffffffffffffffffffffffffffffffffff16600d8481548110610c5357610c526132d2565b5b906000526020600020906005020160040154604051610c71906134c2565b60006040518083038185875af1925050503d8060008114610cae576040519150601f19603f3d011682016040523d82523d6000602084013e610cb3565b606091505b5050905080610cf7576040517f08c379a0000000000000000000000000000000000000000000000000000000008152600401610cee90613523565b60405180910390fd5b505050565b6000610d0783610eb8565b8210610d48576040517f08c379a0000000000000000000000000000000000000000000000000000000008152600401610d3f906135b5565b60405180910390fd5b600660008473ffffffffffffffffffffffffffffffffffffffff1673ffffffffffffffffffffffffffffffffffffffff168152602001908152602001600020600083815260200190815260200160002054905092915050565b610dbc838383604051806020016040528060008152506112d3565b505050565b6000610dcb610ab1565b8210610e0c576040517f08c379a0000000000000000000000000000000000000000000000000000000008152600401610e0390613647565b60405180910390fd5b60088281548110610e2057610e1f6132d2565b5b90600052602060002001549050919050565b600080610e3e83611a36565b9050600073ffffffffffffffffffffffffffffffffffffffff168173ffffffffffffffffffffffffffffffffffffffff1603610eaf576040517f08c379a0000000000000000000000000000000000000000000000000000000008152600401610ea6906136b3565b60405180910390fd5b80915050919050565b60008073ffffffffffffffffffffffffffffffffffffffff168273ffffffffffffffffffffffffffffffffffffffff1603610f28576040517f08c379a0000000000000000000000000000000000000000000000000000000008152600401610f1f90613745565b60405180910390fd5b600360008373ffffffffffffffffffffffffffffffffffffffff1673ffffffffffffffffffffffffffffffffffffffff168152602001908152602001600020549050919050565b610f77611a73565b610f816000611af1565b565b600c6020528160005260406000206020528060005260406000206000915091509054906101000a900460ff1681565b6000600a60009054906101000a900473ffffffffffffffffffffffffffffffffffffffff16905090565b606060018054610feb9061317d565b80601f01602080910402602001604051908101604052809291908181526020018280546110179061317d565b80156110645780601f1061103957610100808354040283529160200191611064565b820191906000526020600020905b81548152906001019060200180831161104757829003601f168201915b5050505050905090565b8080600d80549050118015611084575060008110155b6110c3576040517f08c379a00000000000000000000000000000000000000000000000000000000081526004016110ba906133df565b60405180910390fd5b34600d83815481106110d8576110d76132d2565b5b906000526020600020906005020160030154111561112b576040517f08c379a0000000000000000000000000000000000000000000000000000000008152600401611122906137d7565b60405180910390fd5b600b600081548092919061113e90613826565b91905055506001600c60008481526020019081526020016000206000600b54815260200190815260200160002060006101000a81548160ff02191690831515021790555034600d8381548110611197576111966132d2565b5b906000526020600020906005020160040160008282546111b7919061386e565b925050819055506111ca33600b54611bb7565b5050565b600d6040518060a00160405280600d8054905081526020018481526020013373ffffffffffffffffffffffffffffffffffffffff1681526020018381526020016000815250908060018154018082558091505060019003906000526020600020906005020160009091909190915060008201518160000155602082015181600101908161125b9190613a4e565b5060408201518160020160006101000a81548173ffffffffffffffffffffffffffffffffffffffff021916908373ffffffffffffffffffffffffffffffffffffffff160217905550606082015181600301556080820151816004015550505050565b6112cf6112c86115e7565b8383611bd5565b5050565b6112e46112de6115e7565b836116a8565b611323576040517f08c379a000000000000000000000000000000000000000000000000000000000815260040161131a90613373565b60405180910390fd5b61132f84848484611d41565b50505050565b60606113408261159c565b600061134a611d9d565b9050600081511161136a5760405180602001604052806000815250611395565b8061137484611db4565b604051602001611385929190613b5c565b6040516020818303038152906040525b915050919050565b600b5481565b6000600560008473ffffffffffffffffffffffffffffffffffffffff1673ffffffffffffffffffffffffffffffffffffffff16815260200190815260200160002060008373ffffffffffffffffffffffffffffffffffffffff1673ffffffffffffffffffffffffffffffffffffffff16815260200190815260200160002060009054906101000a900460ff16905092915050565b61143f611a73565b600073ffffffffffffffffffffffffffffffffffffffff168173ffffffffffffffffffffffffffffffffffffffff16036114ae576040517f08c379a00000000000000000000000000000000000000000000000000000000081526004016114a590613bf2565b60405180910390fd5b6114b781611af1565b50565b60007f80ac58cd000000000000000000000000000000000000000000000000000000007bffffffffffffffffffffffffffffffffffffffffffffffffffffffff1916827bffffffffffffffffffffffffffffffffffffffffffffffffffffffff1916148061158557507f5b5e139f000000000000000000000000000000000000000000000000000000007bffffffffffffffffffffffffffffffffffffffffffffffffffffffff1916827bffffffffffffffffffffffffffffffffffffffffffffffffffffffff1916145b80611595575061159482611e82565b5b9050919050565b6115a581611eec565b6115e4576040517f08c379a00000000000000000000000000000000000000000000000000000000081526004016115db906136b3565b60405180910390fd5b50565b600033905090565b816004600083815260200190815260200160002060006101000a81548173ffffffffffffffffffffffffffffffffffffffff021916908373ffffffffffffffffffffffffffffffffffffffff160217905550808273ffffffffffffffffffffffffffffffffffffffff1661166283610e32565b73ffffffffffffffffffffffffffffffffffffffff167f8c5be1e5ebec7d5bd14f71427d1e84f3dd0314c0f7b2291e5b200ac8c7c3b92560405160405180910390a45050565b6000806116b483610e32565b90508073ffffffffffffffffffffffffffffffffffffffff168473ffffffffffffffffffffffffffffffffffffffff1614806116f657506116f581856113a3565b5b8061173457508373ffffffffffffffffffffffffffffffffffffffff1661171c846107c9565b73ffffffffffffffffffffffffffffffffffffffff16145b91505092915050565b8273ffffffffffffffffffffffffffffffffffffffff1661175d82610e32565b73ffffffffffffffffffffffffffffffffffffffff16146117b3576040517f08c379a00000000000000000000000000000000000000000000000000000000081526004016117aa90613c84565b60405180910390fd5b600073ffffffffffffffffffffffffffffffffffffffff168273ffffffffffffffffffffffffffffffffffffffff1603611822576040517f08c379a000000000000000000000000000000000000000000000000000000000815260040161181990613d16565b60405180910390fd5b61182f8383836001611f2d565b8273ffffffffffffffffffffffffffffffffffffffff1661184f82610e32565b73ffffffffffffffffffffffffffffffffffffffff16146118a5576040517f08c379a000000000000000000000000000000000000000000000000000000000815260040161189c90613c84565b60405180910390fd5b6004600082815260200190815260200160002060006101000a81549073ffffffffffffffffffffffffffffffffffffffff02191690556001600360008573ffffffffffffffffffffffffffffffffffffffff1673ffffffffffffffffffffffffffffffffffffffff168152602001908152602001600020600082825403925050819055506001600360008473ffffffffffffffffffffffffffffffffffffffff1673ffffffffffffffffffffffffffffffffffffffff16815260200190815260200160002060008282540192505081905550816002600083815260200190815260200160002060006101000a81548173ffffffffffffffffffffffffffffffffffffffff021916908373ffffffffffffffffffffffffffffffffffffffff160217905550808273ffffffffffffffffffffffffffffffffffffffff168473ffffffffffffffffffffffffffffffffffffffff167fddf252ad1be2c89b69c2b068fc378daa952ba7f163c4a11628f55a4df523b3ef60405160405180910390a4611a31838383600161208b565b505050565b60006002600083815260200190815260200160002060009054906101000a900473ffffffffffffffffffffffffffffffffffffffff169050919050565b611a7b6115e7565b73ffffffffffffffffffffffffffffffffffffffff16611a99610fb2565b73ffffffffffffffffffffffffffffffffffffffff1614611aef576040517f08c379a0000000000000000000000000000000000000000000000000000000008152600401611ae690613d82565b60405180910390fd5b565b6000600a60009054906101000a900473ffffffffffffffffffffffffffffffffffffffff16905081600a60006101000a81548173ffffffffffffffffffffffffffffffffffffffff021916908373ffffffffffffffffffffffffffffffffffffffff1602179055508173ffffffffffffffffffffffffffffffffffffffff168173ffffffffffffffffffffffffffffffffffffffff167f8be0079c531659141344cd1fd0a4f28419497f9722a3daafe3b4186f6b6457e060405160405180910390a35050565b611bd1828260405180602001604052806000815250612091565b5050565b8173ffffffffffffffffffffffffffffffffffffffff168373ffffffffffffffffffffffffffffffffffffffff1603611c43576040517f08c379a0000000000000000000000000000000000000000000000000000000008152600401611c3a90613dee565b60405180910390fd5b80600560008573ffffffffffffffffffffffffffffffffffffffff1673ffffffffffffffffffffffffffffffffffffffff16815260200190815260200160002060008473ffffffffffffffffffffffffffffffffffffffff1673ffffffffffffffffffffffffffffffffffffffff16815260200190815260200160002060006101000a81548160ff0219169083151502179055508173ffffffffffffffffffffffffffffffffffffffff168373ffffffffffffffffffffffffffffffffffffffff167f17307eab39ab6107e8899845ad3d59bd9653f200f220920489ca2b5937696c3183604051611d349190612a0b565b60405180910390a3505050565b611d4c84848461173d565b611d58848484846120ec565b611d97576040517f08c379a0000000000000000000000000000000000000000000000000000000008152600401611d8e90613e80565b60405180910390fd5b50505050565b606060405180602001604052806000815250905090565b606060006001611dc384612273565b01905060008167ffffffffffffffff811115611de257611de1612df7565b5b6040519080825280601f01601f191660200182016040528015611e145781602001600182028036833780820191505090505b509050600082602001820190505b600115611e77578080600190039150507f3031323334353637383961626364656600000000000000000000000000000000600a86061a8153600a8581611e6b57611e6a613ea0565b5b04945060008503611e22575b819350505050919050565b60007f01ffc9a7000000000000000000000000000000000000000000000000000000007bffffffffffffffffffffffffffffffffffffffffffffffffffffffff1916827bffffffffffffffffffffffffffffffffffffffffffffffffffffffff1916149050919050565b60008073ffffffffffffffffffffffffffffffffffffffff16611f0e83611a36565b73ffffffffffffffffffffffffffffffffffffffff1614159050919050565b611f39848484846123c6565b6001811115611f7d576040517f08c379a0000000000000000000000000000000000000000000000000000000008152600401611f7490613f41565b60405180910390fd5b6000829050600073ffffffffffffffffffffffffffffffffffffffff168573ffffffffffffffffffffffffffffffffffffffff1603611fc457611fbf816123cc565b612003565b8373ffffffffffffffffffffffffffffffffffffffff168573ffffffffffffffffffffffffffffffffffffffff1614612002576120018582612415565b5b5b600073ffffffffffffffffffffffffffffffffffffffff168473ffffffffffffffffffffffffffffffffffffffff16036120455761204081612582565b612084565b8473ffffffffffffffffffffffffffffffffffffffff168473ffffffffffffffffffffffffffffffffffffffff1614612083576120828482612653565b5b5b5050505050565b50505050565b61209b83836126d2565b6120a860008484846120ec565b6120e7576040517f08c379a00000000000000000000000000000000000000000000000000000000081526004016120de90613e80565b60405180910390fd5b505050565b600061210d8473ffffffffffffffffffffffffffffffffffffffff166128ef565b15612266578373ffffffffffffffffffffffffffffffffffffffff1663150b7a026121366115e7565b8786866040518563ffffffff1660e01b81526004016121589493929190613fb6565b6020604051808303816000875af192505050801561219457506040513d601f19601f820116820180604052508101906121919190614017565b60015b612216573d80600081146121c4576040519150601f19603f3d011682016040523d82523d6000602084013e6121c9565b606091505b50600081510361220e576040517f08c379a000000000000000000000000000000000000000000000000000000000815260040161220590613e80565b60405180910390fd5b805181602001fd5b63150b7a0260e01b7bffffffffffffffffffffffffffffffffffffffffffffffffffffffff1916817bffffffffffffffffffffffffffffffffffffffffffffffffffffffff19161491505061226b565b600190505b949350505050565b600080600090507a184f03e93ff9f4daa797ed6e38ed64bf6a1f01000000000000000083106122d1577a184f03e93ff9f4daa797ed6e38ed64bf6a1f01000000000000000083816122c7576122c6613ea0565b5b0492506040810190505b6d04ee2d6d415b85acef8100000000831061230e576d04ee2d6d415b85acef8100000000838161230457612303613ea0565b5b0492506020810190505b662386f26fc10000831061233d57662386f26fc10000838161233357612332613ea0565b5b0492506010810190505b6305f5e1008310612366576305f5e100838161235c5761235b613ea0565b5b0492506008810190505b612710831061238b57612710838161238157612380613ea0565b5b0492506004810190505b606483106123ae57606483816123a4576123a3613ea0565b5b0492506002810190505b600a83106123bd576001810190505b80915050919050565b50505050565b6008805490506009600083815260200190815260200160002081905550600881908060018154018082558091505060019003906000526020600020016000909190919091505550565b6000600161242284610eb8565b61242c9190614044565b9050600060076000848152602001908152602001600020549050818114612511576000600660008673ffffffffffffffffffffffffffffffffffffffff1673ffffffffffffffffffffffffffffffffffffffff168152602001908152602001600020600084815260200190815260200160002054905080600660008773ffffffffffffffffffffffffffffffffffffffff1673ffffffffffffffffffffffffffffffffffffffff168152602001908152602001600020600084815260200190815260200160002081905550816007600083815260200190815260200160002081905550505b6007600084815260200190815260200160002060009055600660008573ffffffffffffffffffffffffffffffffffffffff1673ffffffffffffffffffffffffffffffffffffffff16815260200190815260200160002060008381526020019081526020016000206000905550505050565b600060016008805490506125969190614044565b90506000600960008481526020019081526020016000205490506000600883815481106125c6576125c56132d2565b5b9060005260206000200154905080600883815481106125e8576125e76132d2565b5b90600052602060002001819055508160096000838152602001908152602001600020819055506009600085815260200190815260200160002060009055600880548061263757612636614078565b5b6001900381819060005260206000200160009055905550505050565b600061265e83610eb8565b905081600660008573ffffffffffffffffffffffffffffffffffffffff1673ffffffffffffffffffffffffffffffffffffffff168152602001908152602001600020600083815260200190815260200160002081905550806007600084815260200190815260200160002081905550505050565b600073ffffffffffffffffffffffffffffffffffffffff168273ffffffffffffffffffffffffffffffffffffffff1603612741576040517f08c379a0000000000000000000000000000000000000000000000000000000008152600401612738906140f3565b60405180910390fd5b61274a81611eec565b1561278a576040517f08c379a00000000000000000000000000000000000000000000000000000000081526004016127819061415f565b60405180910390fd5b612798600083836001611f2d565b6127a181611eec565b156127e1576040517f08c379a00000000000000000000000000000000000000000000000000000000081526004016127d89061415f565b60405180910390fd5b6001600360008473ffffffffffffffffffffffffffffffffffffffff1673ffffffffffffffffffffffffffffffffffffffff16815260200190815260200160002060008282540192505081905550816002600083815260200190815260200160002060006101000a81548173ffffffffffffffffffffffffffffffffffffffff021916908373ffffffffffffffffffffffffffffffffffffffff160217905550808273ffffffffffffffffffffffffffffffffffffffff16600073ffffffffffffffffffffffffffffffffffffffff167fddf252ad1be2c89b69c2b068fc378daa952ba7f163c4a11628f55a4df523b3ef60405160405180910390a46128eb60008383600161208b565b5050565b6000808273ffffffffffffffffffffffffffffffffffffffff163b119050919050565b6040518060a001604052806000815260200160608152602001600073ffffffffffffffffffffffffffffffffffffffff16815260200160008152602001600081525090565b6000604051905090565b600080fd5b600080fd5b60007fffffffff0000000000000000000000000000000000000000000000000000000082169050919050565b6129a08161296b565b81146129ab57600080fd5b50565b6000813590506129bd81612997565b92915050565b6000602082840312156129d9576129d8612961565b5b60006129e7848285016129ae565b91505092915050565b60008115159050919050565b612a05816129f0565b82525050565b6000602082019050612a2060008301846129fc565b92915050565b600081519050919050565b600082825260208201905092915050565b60005b83811015612a60578082015181840152602081019050612a45565b60008484015250505050565b6000601f19601f8301169050919050565b6000612a8882612a26565b612a928185612a31565b9350612aa2818560208601612a42565b612aab81612a6c565b840191505092915050565b60006020820190508181036000830152612ad08184612a7d565b905092915050565b6000819050919050565b612aeb81612ad8565b8114612af657600080fd5b50565b600081359050612b0881612ae2565b92915050565b600060208284031215612b2457612b23612961565b5b6000612b3284828501612af9565b91505092915050565b600073ffffffffffffffffffffffffffffffffffffffff82169050919050565b6000612b6682612b3b565b9050919050565b612b7681612b5b565b82525050565b6000602082019050612b916000830184612b6d565b92915050565b612ba081612b5b565b8114612bab57600080fd5b50565b600081359050612bbd81612b97565b92915050565b60008060408385031215612bda57612bd9612961565b5b6000612be885828601612bae565b9250506020612bf985828601612af9565b9150509250929050565b612c0c81612ad8565b82525050565b600082825260208201905092915050565b6000612c2e82612a26565b612c388185612c12565b9350612c48818560208601612a42565b612c5181612a6c565b840191505092915050565b612c6581612b5b565b82525050565b600060a083016000830151612c836000860182612c03565b5060208301518482036020860152612c9b8282612c23565b9150506040830151612cb06040860182612c5c565b506060830151612cc36060860182612c03565b506080830151612cd66080860182612c03565b508091505092915050565b60006020820190508181036000830152612cfb8184612c6b565b905092915050565b612d0c81612ad8565b82525050565b6000602082019050612d276000830184612d03565b92915050565b60008060408385031215612d4457612d43612961565b5b6000612d5285828601612af9565b9250506020612d6385828601612af9565b9150509250929050565b600080600060608486031215612d8657612d85612961565b5b6000612d9486828701612bae565b9350506020612da586828701612bae565b9250506040612db686828701612af9565b9150509250925092565b600060208284031215612dd657612dd5612961565b5b6000612de484828501612bae565b91505092915050565b600080fd5b600080fd5b7f4e487b7100000000000000000000000000000000000000000000000000000000600052604160045260246000fd5b612e2f82612a6c565b810181811067ffffffffffffffff82111715612e4e57612e4d612df7565b5b80604052505050565b6000612e61612957565b9050612e6d8282612e26565b919050565b600067ffffffffffffffff821115612e8d57612e8c612df7565b5b612e9682612a6c565b9050602081019050919050565b82818337600083830152505050565b6000612ec5612ec084612e72565b612e57565b905082815260208101848484011115612ee157612ee0612df2565b5b612eec848285612ea3565b509392505050565b600082601f830112612f0957612f08612ded565b5b8135612f19848260208601612eb2565b91505092915050565b60008060408385031215612f3957612f38612961565b5b600083013567ffffffffffffffff811115612f5757612f56612966565b5b612f6385828601612ef4565b9250506020612f7485828601612af9565b9150509250929050565b612f87816129f0565b8114612f9257600080fd5b50565b600081359050612fa481612f7e565b92915050565b60008060408385031215612fc157612fc0612961565b5b6000612fcf85828601612bae565b9250506020612fe085828601612f95565b9150509250929050565b600067ffffffffffffffff82111561300557613004612df7565b5b61300e82612a6c565b9050602081019050919050565b600061302e61302984612fea565b612e57565b90508281526020810184848401111561304a57613049612df2565b5b613055848285612ea3565b509392505050565b600082601f83011261307257613071612ded565b5b813561308284826020860161301b565b91505092915050565b600080600080608085870312156130a5576130a4612961565b5b60006130b387828801612bae565b94505060206130c487828801612bae565b93505060406130d587828801612af9565b925050606085013567ffffffffffffffff8111156130f6576130f5612966565b5b6131028782880161305d565b91505092959194509250565b6000806040838503121561312557613124612961565b5b600061313385828601612bae565b925050602061314485828601612bae565b9150509250929050565b7f4e487b7100000000000000000000000000000000000000000000000000000000600052602260045260246000fd5b6000600282049050600182168061319557607f821691505b6020821081036131a8576131a761314e565b5b50919050565b7f4552433732313a20617070726f76616c20746f2063757272656e74206f776e6560008201527f7200000000000000000000000000000000000000000000000000000000000000602082015250565b600061320a602183612a31565b9150613215826131ae565b604082019050919050565b60006020820190508181036000830152613239816131fd565b9050919050565b7f4552433732313a20617070726f76652063616c6c6572206973206e6f7420746f60008201527f6b656e206f776e6572206f7220617070726f76656420666f7220616c6c000000602082015250565b600061329c603d83612a31565b91506132a782613240565b604082019050919050565b600060208201905081810360008301526132cb8161328f565b9050919050565b7f4e487b7100000000000000000000000000000000000000000000000000000000600052603260045260246000fd5b7f4552433732313a2063616c6c6572206973206e6f7420746f6b656e206f776e6560008201527f72206f7220617070726f76656400000000000000000000000000000000000000602082015250565b600061335d602d83612a31565b915061336882613301565b604082019050919050565b6000602082019050818103600083015261338c81613350565b9050919050565b7f44617070636f72643a204368616e6e656c20646f65736e277420206578697400600082015250565b60006133c9601f83612a31565b91506133d482613393565b602082019050919050565b600060208201905081810360008301526133f8816133bc565b9050919050565b7f44617070636f72643a2057697468647261776572206d7573742062652074686560008201527f206f776e65720000000000000000000000000000000000000000000000000000602082015250565b600061345b602683612a31565b9150613466826133ff565b604082019050919050565b6000602082019050818103600083015261348a8161344e565b9050919050565b600081905092915050565b50565b60006134ac600083613491565b91506134b78261349c565b600082019050919050565b60006134cd8261349f565b9150819050919050565b7f44617070636f72643a205472616e7366657220686173206661696c6564000000600082015250565b600061350d601d83612a31565b9150613518826134d7565b602082019050919050565b6000602082019050818103600083015261353c81613500565b9050919050565b7f455243373231456e756d657261626c653a206f776e657220696e646578206f7560008201527f74206f6620626f756e6473000000000000000000000000000000000000000000602082015250565b600061359f602b83612a31565b91506135aa82613543565b604082019050919050565b600060208201905081810360008301526135ce81613592565b9050919050565b7f455243373231456e756d657261626c653a20676c6f62616c20696e646578206f60008201527f7574206f6620626f756e64730000000000000000000000000000000000000000602082015250565b6000613631602c83612a31565b915061363c826135d5565b604082019050919050565b6000602082019050818103600083015261366081613624565b9050919050565b7f4552433732313a20696e76616c696420746f6b656e2049440000000000000000600082015250565b600061369d601883612a31565b91506136a882613667565b602082019050919050565b600060208201905081810360008301526136cc81613690565b9050919050565b7f4552433732313a2061646472657373207a65726f206973206e6f74206120766160008201527f6c6964206f776e65720000000000000000000000000000000000000000000000602082015250565b600061372f602983612a31565b915061373a826136d3565b604082019050919050565b6000602082019050818103600083015261375e81613722565b9050919050565b7f44617070636f72643a2056616c7565206973206c6f776572207468616e20726560008201527f71756972656420696e20746865206368616e656c000000000000000000000000602082015250565b60006137c1603483612a31565b91506137cc82613765565b604082019050919050565b600060208201905081810360008301526137f0816137b4565b9050919050565b7f4e487b7100000000000000000000000000000000000000000000000000000000600052601160045260246000fd5b600061383182612ad8565b91507fffffffffffffffffffffffffffffffffffffffffffffffffffffffffffffffff8203613863576138626137f7565b5b600182019050919050565b600061387982612ad8565b915061388483612ad8565b925082820190508082111561389c5761389b6137f7565b5b92915050565b60008190508160005260206000209050919050565b60006020601f8301049050919050565b600082821b905092915050565b6000600883026139047fffffffffffffffffffffffffffffffffffffffffffffffffffffffffffffffff826138c7565b61390e86836138c7565b95508019841693508086168417925050509392505050565b6000819050919050565b600061394b61394661394184612ad8565b613926565b612ad8565b9050919050565b6000819050919050565b61396583613930565b61397961397182613952565b8484546138d4565b825550505050565b600090565b61398e613981565b61399981848461395c565b505050565b5b818110156139bd576139b2600082613986565b60018101905061399f565b5050565b601f821115613a02576139d3816138a2565b6139dc846138b7565b810160208510156139eb578190505b6139ff6139f7856138b7565b83018261399e565b50505b505050565b600082821c905092915050565b6000613a2560001984600802613a07565b1980831691505092915050565b6000613a3e8383613a14565b9150826002028217905092915050565b613a5782612a26565b67ffffffffffffffff811115613a7057613a6f612df7565b5b613a7a825461317d565b613a858282856139c1565b600060209050601f831160018114613ab85760008415613aa6578287015190505b613ab08582613a32565b865550613b18565b601f198416613ac6866138a2565b60005b82811015613aee57848901518255600182019150602085019450602081019050613ac9565b86831015613b0b5784890151613b07601f891682613a14565b8355505b6001600288020188555050505b505050505050565b600081905092915050565b6000613b3682612a26565b613b408185613b20565b9350613b50818560208601612a42565b80840191505092915050565b6000613b688285613b2b565b9150613b748284613b2b565b91508190509392505050565b7f4f776e61626c653a206e6577206f776e657220697320746865207a65726f206160008201527f6464726573730000000000000000000000000000000000000000000000000000602082015250565b6000613bdc602683612a31565b9150613be782613b80565b604082019050919050565b60006020820190508181036000830152613c0b81613bcf565b9050919050565b7f4552433732313a207472616e736665722066726f6d20696e636f72726563742060008201527f6f776e6572000000000000000000000000000000000000000000000000000000602082015250565b6000613c6e602583612a31565b9150613c7982613c12565b604082019050919050565b60006020820190508181036000830152613c9d81613c61565b9050919050565b7f4552433732313a207472616e7366657220746f20746865207a65726f2061646460008201527f7265737300000000000000000000000000000000000000000000000000000000602082015250565b6000613d00602483612a31565b9150613d0b82613ca4565b604082019050919050565b60006020820190508181036000830152613d2f81613cf3565b9050919050565b7f4f776e61626c653a2063616c6c6572206973206e6f7420746865206f776e6572600082015250565b6000613d6c602083612a31565b9150613d7782613d36565b602082019050919050565b60006020820190508181036000830152613d9b81613d5f565b9050919050565b7f4552433732313a20617070726f766520746f2063616c6c657200000000000000600082015250565b6000613dd8601983612a31565b9150613de382613da2565b602082019050919050565b60006020820190508181036000830152613e0781613dcb565b9050919050565b7f4552433732313a207472616e7366657220746f206e6f6e20455243373231526560008201527f63656976657220696d706c656d656e7465720000000000000000000000000000602082015250565b6000613e6a603283612a31565b9150613e7582613e0e565b604082019050919050565b60006020820190508181036000830152613e9981613e5d565b9050919050565b7f4e487b7100000000000000000000000000000000000000000000000000000000600052601260045260246000fd5b7f455243373231456e756d657261626c653a20636f6e736563757469766520747260008201527f616e7366657273206e6f7420737570706f727465640000000000000000000000602082015250565b6000613f2b603583612a31565b9150613f3682613ecf565b604082019050919050565b60006020820190508181036000830152613f5a81613f1e565b9050919050565b600081519050919050565b600082825260208201905092915050565b6000613f8882613f61565b613f928185613f6c565b9350613fa2818560208601612a42565b613fab81612a6c565b840191505092915050565b6000608082019050613fcb6000830187612b6d565b613fd86020830186612b6d565b613fe56040830185612d03565b8181036060830152613ff78184613f7d565b905095945050505050565b60008151905061401181612997565b92915050565b60006020828403121561402d5761402c612961565b5b600061403b84828501614002565b91505092915050565b600061404f82612ad8565b915061405a83612ad8565b9250828203905081811115614072576140716137f7565b5b92915050565b7f4e487b7100000000000000000000000000000000000000000000000000000000600052603160045260246000fd5b7f4552433732313a206d696e7420746f20746865207a65726f2061646472657373600082015250565b60006140dd602083612a31565b91506140e8826140a7565b602082019050919050565b6000602082019050818103600083015261410c816140d0565b9050919050565b7f4552433732313a20746f6b656e20616c7265616479206d696e74656400000000600082015250565b6000614149601c83612a31565b915061415482614113565b602082019050919050565b600060208201905081810360008301526141788161413c565b905091905056fea2646970667358221220ab1da1482c480a086efd860b6ebc1511af161951866aade52f897aa9664b33bc64736f6c63430008120033",
  "devdoc": {
    "events": {
      "Approval(address,address,uint256)": {
        "details": "Emitted when `owner` enables `approved` to manage the `tokenId` token."
      },
      "ApprovalForAll(address,address,bool)": {
        "details": "Emitted when `owner` enables or disables (`approved`) `operator` to manage all of its assets."
      },
      "Transfer(address,address,uint256)": {
        "details": "Emitted when `tokenId` token is transferred from `from` to `to`."
      }
    },
    "kind": "dev",
    "methods": {
      "approve(address,uint256)": {
        "details": "See {IERC721-approve}."
      },
      "balanceOf(address)": {
        "details": "See {IERC721-balanceOf}."
      },
      "getApproved(uint256)": {
        "details": "See {IERC721-getApproved}."
      },
      "isApprovedForAll(address,address)": {
        "details": "See {IERC721-isApprovedForAll}."
      },
      "name()": {
        "details": "See {IERC721Metadata-name}."
      },
      "owner()": {
        "details": "Returns the address of the current owner."
      },
      "ownerOf(uint256)": {
        "details": "See {IERC721-ownerOf}."
      },
      "renounceOwnership()": {
        "details": "Leaves the contract without owner. It will not be possible to call `onlyOwner` functions anymore. Can only be called by the current owner. NOTE: Renouncing ownership will leave the contract without an owner, thereby removing any functionality that is only available to the owner."
      },
      "safeTransferFrom(address,address,uint256)": {
        "details": "See {IERC721-safeTransferFrom}."
      },
      "safeTransferFrom(address,address,uint256,bytes)": {
        "details": "See {IERC721-safeTransferFrom}."
      },
      "setApprovalForAll(address,bool)": {
        "details": "See {IERC721-setApprovalForAll}."
      },
      "supportsInterface(bytes4)": {
        "details": "See {IERC165-supportsInterface}."
      },
      "symbol()": {
        "details": "See {IERC721Metadata-symbol}."
      },
      "tokenByIndex(uint256)": {
        "details": "See {IERC721Enumerable-tokenByIndex}."
      },
      "tokenOfOwnerByIndex(address,uint256)": {
        "details": "See {IERC721Enumerable-tokenOfOwnerByIndex}."
      },
      "tokenURI(uint256)": {
        "details": "See {IERC721Metadata-tokenURI}."
      },
      "totalSupply()": {
        "details": "See {IERC721Enumerable-totalSupply}."
      },
      "transferFrom(address,address,uint256)": {
        "details": "See {IERC721-transferFrom}."
      },
      "transferOwnership(address)": {
        "details": "Transfers ownership of the contract to a new account (`newOwner`). Can only be called by the current owner."
      }
    },
    "version": 1
  },
  "userdoc": {
    "kind": "user",
    "methods": {},
    "version": 1
  },
  "storageLayout": {
    "storage": [
      {
        "astId": 138,
        "contract": "contracts/Dappcord.sol:Dappcord",
        "label": "_name",
        "offset": 0,
        "slot": "0",
        "type": "t_string_storage"
      },
      {
        "astId": 140,
        "contract": "contracts/Dappcord.sol:Dappcord",
        "label": "_symbol",
        "offset": 0,
        "slot": "1",
        "type": "t_string_storage"
      },
      {
        "astId": 144,
        "contract": "contracts/Dappcord.sol:Dappcord",
        "label": "_owners",
        "offset": 0,
        "slot": "2",
        "type": "t_mapping(t_uint256,t_address)"
      },
      {
        "astId": 148,
        "contract": "contracts/Dappcord.sol:Dappcord",
        "label": "_balances",
        "offset": 0,
        "slot": "3",
        "type": "t_mapping(t_address,t_uint256)"
      },
      {
        "astId": 152,
        "contract": "contracts/Dappcord.sol:Dappcord",
        "label": "_tokenApprovals",
        "offset": 0,
        "slot": "4",
        "type": "t_mapping(t_uint256,t_address)"
      },
      {
        "astId": 158,
        "contract": "contracts/Dappcord.sol:Dappcord",
        "label": "_operatorApprovals",
        "offset": 0,
        "slot": "5",
        "type": "t_mapping(t_address,t_mapping(t_address,t_bool))"
      },
      {
        "astId": 1188,
        "contract": "contracts/Dappcord.sol:Dappcord",
        "label": "_ownedTokens",
        "offset": 0,
        "slot": "6",
        "type": "t_mapping(t_address,t_mapping(t_uint256,t_uint256))"
      },
      {
        "astId": 1192,
        "contract": "contracts/Dappcord.sol:Dappcord",
        "label": "_ownedTokensIndex",
        "offset": 0,
        "slot": "7",
        "type": "t_mapping(t_uint256,t_uint256)"
      },
      {
        "astId": 1195,
        "contract": "contracts/Dappcord.sol:Dappcord",
        "label": "_allTokens",
        "offset": 0,
        "slot": "8",
        "type": "t_array(t_uint256)dyn_storage"
      },
      {
        "astId": 1199,
        "contract": "contracts/Dappcord.sol:Dappcord",
        "label": "_allTokensIndex",
        "offset": 0,
        "slot": "9",
        "type": "t_mapping(t_uint256,t_uint256)"
      },
      {
        "astId": 7,
        "contract": "contracts/Dappcord.sol:Dappcord",
        "label": "_owner",
        "offset": 0,
        "slot": "10",
        "type": "t_address"
      },
      {
        "astId": 3034,
        "contract": "contracts/Dappcord.sol:Dappcord",
        "label": "tokenCounter",
        "offset": 0,
        "slot": "11",
        "type": "t_uint256"
      },
      {
        "astId": 3040,
        "contract": "contracts/Dappcord.sol:Dappcord",
        "label": "participants",
        "offset": 0,
        "slot": "12",
        "type": "t_mapping(t_uint256,t_mapping(t_uint256,t_bool))"
      },
      {
        "astId": 3044,
        "contract": "contracts/Dappcord.sol:Dappcord",
        "label": "channels",
        "offset": 0,
        "slot": "13",
        "type": "t_array(t_struct(Channel)3032_storage)dyn_storage"
      }
    ],
    "types": {
      "t_address": {
        "encoding": "inplace",
        "label": "address",
        "numberOfBytes": "20"
      },
      "t_array(t_struct(Channel)3032_storage)dyn_storage": {
        "base": "t_struct(Channel)3032_storage",
        "encoding": "dynamic_array",
        "label": "struct Dappcord.Channel[]",
        "numberOfBytes": "32"
      },
      "t_array(t_uint256)dyn_storage": {
        "base": "t_uint256",
        "encoding": "dynamic_array",
        "label": "uint256[]",
        "numberOfBytes": "32"
      },
      "t_bool": {
        "encoding": "inplace",
        "label": "bool",
        "numberOfBytes": "1"
      },
      "t_mapping(t_address,t_bool)": {
        "encoding": "mapping",
        "key": "t_address",
        "label": "mapping(address => bool)",
        "numberOfBytes": "32",
        "value": "t_bool"
      },
      "t_mapping(t_address,t_mapping(t_address,t_bool))": {
        "encoding": "mapping",
        "key": "t_address",
        "label": "mapping(address => mapping(address => bool))",
        "numberOfBytes": "32",
        "value": "t_mapping(t_address,t_bool)"
      },
      "t_mapping(t_address,t_mapping(t_uint256,t_uint256))": {
        "encoding": "mapping",
        "key": "t_address",
        "label": "mapping(address => mapping(uint256 => uint256))",
        "numberOfBytes": "32",
        "value": "t_mapping(t_uint256,t_uint256)"
      },
      "t_mapping(t_address,t_uint256)": {
        "encoding": "mapping",
        "key": "t_address",
        "label": "mapping(address => uint256)",
        "numberOfBytes": "32",
        "value": "t_uint256"
      },
      "t_mapping(t_uint256,t_address)": {
        "encoding": "mapping",
        "key": "t_uint256",
        "label": "mapping(uint256 => address)",
        "numberOfBytes": "32",
        "value": "t_address"
      },
      "t_mapping(t_uint256,t_bool)": {
        "encoding": "mapping",
        "key": "t_uint256",
        "label": "mapping(uint256 => bool)",
        "numberOfBytes": "32",
        "value": "t_bool"
      },
      "t_mapping(t_uint256,t_mapping(t_uint256,t_bool))": {
        "encoding": "mapping",
        "key": "t_uint256",
        "label": "mapping(uint256 => mapping(uint256 => bool))",
        "numberOfBytes": "32",
        "value": "t_mapping(t_uint256,t_bool)"
      },
      "t_mapping(t_uint256,t_uint256)": {
        "encoding": "mapping",
        "key": "t_uint256",
        "label": "mapping(uint256 => uint256)",
        "numberOfBytes": "32",
        "value": "t_uint256"
      },
      "t_string_storage": {
        "encoding": "bytes",
        "label": "string",
        "numberOfBytes": "32"
      },
      "t_struct(Channel)3032_storage": {
        "encoding": "inplace",
        "label": "struct Dappcord.Channel",
        "members": [
          {
            "astId": 3023,
            "contract": "contracts/Dappcord.sol:Dappcord",
            "label": "id",
            "offset": 0,
            "slot": "0",
            "type": "t_uint256"
          },
          {
            "astId": 3025,
            "contract": "contracts/Dappcord.sol:Dappcord",
            "label": "name",
            "offset": 0,
            "slot": "1",
            "type": "t_string_storage"
          },
          {
            "astId": 3027,
            "contract": "contracts/Dappcord.sol:Dappcord",
            "label": "owner",
            "offset": 0,
            "slot": "2",
            "type": "t_address"
          },
          {
            "astId": 3029,
            "contract": "contracts/Dappcord.sol:Dappcord",
            "label": "price",
            "offset": 0,
            "slot": "3",
            "type": "t_uint256"
          },
          {
            "astId": 3031,
            "contract": "contracts/Dappcord.sol:Dappcord",
            "label": "balance",
            "offset": 0,
            "slot": "4",
            "type": "t_uint256"
          }
        ],
        "numberOfBytes": "160"
      },
      "t_uint256": {
        "encoding": "inplace",
        "label": "uint256",
        "numberOfBytes": "32"
      }
    }
  }
}